{
  "contractName": "KnowledgeGraphCoin",
  "abi": [
    {
      "constant": true,
      "inputs": [],
      "name": "name",
      "outputs": [
        {
          "name": "",
          "type": "string"
        }
      ],
      "payable": false,
      "stateMutability": "view",
      "type": "function"
    },
    {
      "constant": true,
      "inputs": [],
      "name": "operator",
      "outputs": [
        {
          "name": "",
          "type": "address"
        }
      ],
      "payable": false,
      "stateMutability": "view",
      "type": "function"
    },
    {
      "constant": true,
      "inputs": [],
      "name": "symbol",
      "outputs": [
        {
          "name": "",
          "type": "string"
        }
      ],
      "payable": false,
      "stateMutability": "view",
      "type": "function"
    },
    {
      "inputs": [],
      "payable": false,
      "stateMutability": "nonpayable",
      "type": "constructor"
    },
    {
      "anonymous": false,
      "inputs": [
        {
          "indexed": false,
          "name": "uid",
          "type": "string"
        },
        {
          "indexed": false,
          "name": "sender",
          "type": "address"
        },
        {
          "indexed": false,
          "name": "amount",
          "type": "uint256"
        },
        {
          "indexed": false,
          "name": "timestamp",
          "type": "uint256"
        },
        {
          "indexed": false,
          "name": "hash",
          "type": "bytes32"
        }
      ],
      "name": "APICreditDepositEvent",
      "type": "event"
    },
    {
      "constant": false,
      "inputs": [
        {
          "name": "uid",
          "type": "string"
        }
      ],
      "name": "buyAPICredit",
      "outputs": [
        {
          "name": "success",
          "type": "bool"
        }
      ],
      "payable": true,
      "stateMutability": "payable",
      "type": "function"
    },
    {
      "constant": true,
      "inputs": [
        {
          "name": "uid",
          "type": "string"
        }
      ],
      "name": "balanceOfAPICredits",
      "outputs": [
        {
          "name": "credit",
          "type": "uint256"
        }
      ],
      "payable": false,
      "stateMutability": "view",
      "type": "function"
    },
    {
      "constant": false,
      "inputs": [
        {
          "name": "uid",
          "type": "string"
        },
        {
          "name": "_cost",
          "type": "uint256"
        },
        {
          "name": "_payload",
          "type": "string"
        },
        {
          "name": "_timestamp",
          "type": "uint256"
        }
      ],
      "name": "reduceAPICredit",
      "outputs": [
        {
          "name": "success",
          "type": "bool"
        }
      ],
      "payable": false,
      "stateMutability": "nonpayable",
      "type": "function"
    },
    {
      "constant": true,
      "inputs": [],
      "name": "test",
      "outputs": [
        {
          "name": "success",
          "type": "bool"
        }
      ],
      "payable": false,
      "stateMutability": "view",
      "type": "function"
    }
  ],
  "bytecode": "0x608060405234801561001057600080fd5b50336000806101000a81548173ffffffffffffffffffffffffffffffffffffffff021916908373ffffffffffffffffffffffffffffffffffffffff160217905550610c78806100606000396000f300608060405260043610610083576000357c0100000000000000000000000000000000000000000000000000000000900463ffffffff16806306fdde03146100885780630fac394f14610118578063486591351461018c578063570ca7351461026757806395d89b41146102be578063e6b564d21461034e578063f8a8fd6d146103cb575b600080fd5b34801561009457600080fd5b5061009d6103fa565b6040518080602001828103825283818151815260200191508051906020019080838360005b838110156100dd5780820151818401526020810190506100c2565b50505050905090810190601f16801561010a5780820380516001836020036101000a031916815260200191505b509250505060405180910390f35b610172600480360381019080803590602001908201803590602001908080601f0160208091040260200160405190810160405280939291908181526020018383808284378201915050505050509192919290505050610433565b604051808215151515815260200191505060405180910390f35b34801561019857600080fd5b5061024d600480360381019080803590602001908201803590602001908080601f016020809104026020016040519081016040528093929190818152602001838380828437820191505050505050919291929080359060200190929190803590602001908201803590602001908080601f016020809104026020016040519081016040528093929190818152602001838380828437820191505050505050919291929080359060200190929190505050610721565b604051808215151515815260200191505060405180910390f35b34801561027357600080fd5b5061027c610acb565b604051808273ffffffffffffffffffffffffffffffffffffffff1673ffffffffffffffffffffffffffffffffffffffff16815260200191505060405180910390f35b3480156102ca57600080fd5b506102d3610af0565b6040518080602001828103825283818151815260200191508051906020019080838360005b838110156103135780820151818401526020810190506102f8565b50505050905090810190601f1680156103405780820380516001836020036101000a031916815260200191505b509250505060405180910390f35b34801561035a57600080fd5b506103b5600480360381019080803590602001908201803590602001908080601f0160208091040260200160405190810160405280939291908181526020018383808284378201915050505050509192919290505050610b29565b6040518082815260200191505060405180910390f35b3480156103d757600080fd5b506103e0610b9e565b604051808215151515815260200191505060405180910390f35b6040805190810160405280601581526020017f4b6e6f776c656467654772617068205468616c6572000000000000000000000081525081565b60006001826040518082805190602001908083835b60208310151561046d5780518252602082019150602081019050602083039250610448565b6001836020036101000a038019825116818451168082178552505050505050905001915050908152602001604051809103902060408051908101604052803373ffffffffffffffffffffffffffffffffffffffff168152602001348152509080600181540180825580915050906001820390600052602060002090600202016000909192909190915060008201518160000160006101000a81548173ffffffffffffffffffffffffffffffffffffffff021916908373ffffffffffffffffffffffffffffffffffffffff16021790555060208201518160010155505050346003836040518082805190602001908083835b602083101515610583578051825260208201915060208101905060208303925061055e565b6001836020036101000a038019825116818451168082178552505050505050905001915050908152602001604051809103902054016003836040518082805190602001908083835b6020831015156105f057805182526020820191506020810190506020830392506105cb565b6001836020036101000a0380198251168184511680821785525050505050509050019150509081526020016040518091039020819055507f3604bc1aa40fbbeeb618d32ea259be4324e855cb4570361def9a3fb501788d7b82333442434060405180806020018673ffffffffffffffffffffffffffffffffffffffff1673ffffffffffffffffffffffffffffffffffffffff1681526020018581526020018481526020018360001916600019168152602001828103825287818151815260200191508051906020019080838360005b838110156106da5780820151818401526020810190506106bf565b50505050905090810190601f1680156107075780820380516001836020036101000a031916815260200191505b50965050505050505060405180910390a160019050919050565b6000806000809054906101000a900473ffffffffffffffffffffffffffffffffffffffff1673ffffffffffffffffffffffffffffffffffffffff163373ffffffffffffffffffffffffffffffffffffffff1614151561080e576040517f08c379a000000000000000000000000000000000000000000000000000000000815260040180806020018281038252603c8152602001807f5468652041504920637265646974206f662075736572732063616e206f6e6c7981526020017f206265207265647563656420627920746865206f70657261746f722e0000000081525060400191505060405180910390fd5b6002866040518082805190602001908083835b6020831015156108465780518252602082019150602081019050602083039250610821565b6001836020036101000a038019825116818451168082178552505050505050905001915050908152602001604051809103902060606040519081016040528087815260200186815260200185815250908060018154018082558091505090600182039060005260206000209060030201600090919290919091506000820151816000015560208201518160010190805190602001906108e6929190610ba7565b50604082015181600201555050506003866040518082805190602001908083835b60208310151561092c5780518252602082019150602081019050602083039250610907565b6001836020036101000a0380198251168184511680821785525050505050509050019150509081526020016040518091039020549050848110156109e05760006003876040518082805190602001908083835b6020831015156109a4578051825260208201915060208101905060208303925061097f565b6001836020036101000a038019825116818451168082178552505050505050905001915050908152602001604051809103902081905550610abe565b846003876040518082805190602001908083835b602083101515610a1957805182526020820191506020810190506020830392506109f4565b6001836020036101000a038019825116818451168082178552505050505050905001915050908152602001604051809103902054036003876040518082805190602001908083835b602083101515610a865780518252602082019150602081019050602083039250610a61565b6001836020036101000a0380198251168184511680821785525050505050509050019150509081526020016040518091039020819055505b6001915050949350505050565b6000809054906101000a900473ffffffffffffffffffffffffffffffffffffffff1681565b6040805190810160405280600381526020017f4b4754000000000000000000000000000000000000000000000000000000000081525081565b60006003826040518082805190602001908083835b602083101515610b635780518252602082019150602081019050602083039250610b3e565b6001836020036101000a0380198251168184511680821785525050505050509050019150509081526020016040518091039020549050919050565b60006001905090565b828054600181600116156101000203166002900490600052602060002090601f016020900481019282601f10610be857805160ff1916838001178555610c16565b82800160010185558215610c16579182015b82811115610c15578251825591602001919060010190610bfa565b5b509050610c239190610c27565b5090565b610c4991905b80821115610c45576000816000905550600101610c2d565b5090565b905600a165627a7a72305820f73120a55236950bd03b538026e8071f56075363467793e81d66ba215c22e9150029",
  "source": "pragma solidity ^0.4.24;\n\n//import \"./EIP20Interface.sol\";\n\n/// @title getting access to KG API\ncontract KnowledgeGraphCoin { //is EIP20Interface {\n\n    uint256 constant private MAX_UINT256 = 2**256 - 1;\n\n    // the operator that deployed this smart contract\n    address public operator;\n\n    string public constant name = \"KnowledgeGraph Thaler\";\n    string public constant symbol = \"KGT\";\n\n    struct APICreditDeposit {\n        address sender;\n        uint256 amount;\n    }\n\n    struct APICall {\n        uint256 cost;\n        string payload;\n        uint timestamp;\n    }\n    \n   event APICreditDepositEvent(\n        string uid,\n        address sender,\n        uint256 amount,\n        uint timestamp,\n        bytes32 hash\n    );\n\n    // maintains the balanaces of the coin.\n    //mapping (address => uint256) balances;\n    //mapping (address => mapping (address => uint256)) allowed;\n    // maintains the balances of the API Credit.\n    mapping(string => APICreditDeposit[]) exploiterAPICredits;\n    mapping(string => APICall[]) exploiterAPICalls;\n    mapping(string => uint256) apiCreditBalance;\n    \n    constructor() public {\n        operator = msg.sender;\n        //totalSupply = MAX_UINT256;\n    }\n\n   // function transfer(address _to, uint256 _value) public returns (bool success) {\n   //     require(balances[msg.sender] >= _value);\n   //     balances[msg.sender] -= _value;\n   //     balances[_to] += _value;\n   //     emit Transfer(msg.sender, _to, _value);\n   //     return true;\n   // }\n\n   // function transferFrom(address _from, address _to, uint256 _value) public returns (bool success) {\n   //     uint256 allowance = allowed[_from][msg.sender];\n   //     require(balances[_from] >= _value && allowance >= _value);\n   //     balances[_to] += _value;\n   //     balances[_from] -= _value;\n   //     if (allowance < MAX_UINT256) {\n   //         allowed[_from][msg.sender] -= _value;\n   //     }\n   //     emit Transfer(_from, _to, _value);\n   //     return true;\n   // }\n\n   // function balanceOf(address _owner) public view returns (uint256 balance) {\n   //     return balances[_owner];\n   // }\n\n   // function approve(address _spender, uint256 _value) public returns (bool success) {\n   //     allowed[msg.sender][_spender] = _value;\n   //     emit Approval(msg.sender, _spender, _value);\n   //     return true;\n   // }\n    \n    //function allowance(address _owner, address _spender) public view returns (uint256 remaining) {\n    //    return allowed[_owner][_spender];\n    //}\n    \n    // this method can be called to buy API credits, \n    function buyAPICredit(string uid) public payable returns (bool success) {\n       exploiterAPICredits[uid].push(APICreditDeposit({\n            sender: msg.sender,\n            amount: msg.value\n        }));\n        apiCreditBalance[uid] = apiCreditBalance[uid] + msg.value;\n        emit APICreditDepositEvent(uid, msg.sender, msg.value, now, blockhash(block.number));\n        return true;\n    }\n    \n    // gets the credits of the exploiter with the given uid. \n    function balanceOfAPICredits(string uid) public view returns (uint256 credit) {\n        return apiCreditBalance[uid];\n    }\n\n    // reduces the credit of the exploiter with the given id. This is called, when\n    // the exploiter used the KG API and has to pay the given cost for tha call.\n    function reduceAPICredit(string uid, uint256 _cost, string _payload, uint _timestamp) public returns (bool success){\n        require(msg.sender == operator, \"The API credit of users can only be reduced by the operator.\");\n        exploiterAPICalls[uid].push(APICall({\n            cost: _cost,\n            payload: _payload,\n            timestamp: _timestamp\n        }));\n        uint256 credit = apiCreditBalance[uid];\n        if (credit < _cost) {\n            // balance shall go below zero, operator has to ensure, that this\n            // will not be exploited maliciously.\n            apiCreditBalance[uid] = 0;\n        } else {\n            apiCreditBalance[uid] = apiCreditBalance[uid] - _cost;\n        }\n        return true;\n    }\n\n    function test() public view returns (bool success){\n        return true;\n    }\n    \n}\n",
  "sourcePath": "/home/haller/Dokumente/10. Semester SS2018/Advanced Services Engineering/UE/Mini Project/smartContracts/contracts/KnowledgeGraphCoin.sol",
  "compiler": {
    "name": "solc",
    "version": "0.4.24+commit.e67f0147.Emscripten.clang"
  },
  "schemaVersion": "2.0.1",
  "updatedAt": "2018-06-23T21:32:02.432Z"
}